:100000000C949D050C94BA050C94BA050C94BA0591
:100010000C94BA050C94BA050C94BA050C94BA0564
:100020000C94BA050C94BA050C94C5130C94C6181C
:100030000C94F8260C94BA050C94BA050C94BA05E5
:100040000C94BA050C94BA050C94BA050C94BA0534
:100050000C94BA050C949E140C94BA050C94BA0531
:100060000C94BA050C94BA050C94BA050C94BA0514
:100070000C94BA050C94BA050C94BA050C94BA0504
:100080000C94BA050C94BA050C94BA050C94BA05F4
:100090000C94BA050C94BA050C94BA050C94BA05E4
:1000A0000C94BA050C94BA050C94BA050501090222
:1000B000A10185020901A1000509190129081500FE
:1000C0002501950875018102050109300931158165
:1000D000257F95027508810609381581257F9501D0
:1000E00075088106050C0A38021581257F95017572
:1000F000088106C0C005010980A101850319012AF4
:10010000B700150126B700950175108100C0050CD8
:100110000901A101850419012AA002150126A002E6
:10012000950175108100C005010906A1018506052C
:100130000719E029E71500250195087501810205D9
:1001400007190029EF1500250195F07501810205B9
:10015000081901290595057501910295017503910D
:1001600001C00660FF0961A1010962150026FF00B8
:100170009520750881020963150026FF00952075FA
:10018000089102C005010906A101050719E029E748
:1001900015002501950875018102950175088101F9
:1001A0000507190029FF150026FF0095067508812F
:1001B000000508190129059505750191029501753C
:1001C000039101C0000000000000000000000000DA
:1001D000000000000000000000000000000000001F
:1001E00000000000000000007E0F00D4FFFFFFC7EA
:1001F0000000007800000000000000002A2B28000A
:1002000000000000000000000000000000000029C5
:10021000000000002C1E3420212224342627252E05
:10022000362D3738271E1F2021222324252633333D
:10023000362E37381F0405060708090A0B0C0D0E69
:100240000F101112131415161718191A1B1C1D2F35
:100250003130232D350405060708090A0B0C0D0E55
:100260000F101112131415161718191A1B1C1D2F15
:100270003130354C00DA0281FFD9F1DB20A4A62E03
:10028000AF00A0C000A1C800AED580A81FD3004019
:100290008D14200000047F3F1F64321464321478F0
:1002A0003C1E1E140A055A45524F005448524545FB
:1002B0000054574F004F4E45005A45524F004C6175
:1002C0007965723A2000000101010101010101017B
:1002D00002020202020202020203030303030303F7
:1002E00003040404040404040505050505060606C4
:1002F0000606070707070708080808090909090A81
:100300000A0A0B0B0B0C0C0C0D0D0D0E0E0E0F0F25
:100310000F101011111112121313141415151616B3
:100320001717181819191A1A1B1B1C1D1D1E1E1F22
:100330002020212222232424252626272829292A71
:100340002B2C2D2D2E2F3031323233343536373899
:10035000393A3B3C3D3E3F40414243444546474895
:10036000494A4C4D4E4F50515354555658595A5B6B
:100370005D5E5F616264656668696B6C6D6F70720B
:10038000737577787A7B7D7E8082838587888A8C77
:100390008E8F91939596989A9C9EA0A2A3A5A7A9AB
:1003A000ABADAFB1B3B5B7BABCBEC0C2C4C6C9CBA2
:1003B000CDCFD1D4D6D8DBDDDFE2E4E7E9EBEEF058
:1003C000F3F5F8FAFDFFFFAA7F55402223252628E2
:1003D000292A2C2D2F3032333536383A3B3D3E40DA
:1003E00042434547494A4C4E5051535557595A5C20
:1003F0005E6062646668696B6D6F71737577797B37
:100400007D7F81838587898A8C8E90929496989A35
:100410009C9E9FA1A3A5A7A8AAACAEAFB1B3B4B64A
:10042000B8B9BBBCBEBFC1C2C3C5C6C7C9CACBCCA5
:10043000CDCED0D1D2D2D3D4D5D6D7D7D8D9D9DA78
:10044000DADBDBDBDCDCDCDCDCDDDDDDDDDCDCDCED
:10045000DCDCDBDBDBDADAD9D9D8D7D7D6D5D4D315
:10046000D2D2D1D0CECDCCCBCAC9C7C6C5C3C2C1EA
:10047000BFBEBCBBB9B8B6B4B3B1AFAEACAAA8A747
:10048000A5A3A19F9E9C9A98969492908E8C8A89FF
:10049000878583817F7D7B79777573716F6D6B69DC
:1004A00068666462605E5C5A5957555351504E4CB1
:1004B0004A4947454342403E3D3B3A383635333260
:1004C000302F2D2C2A29282625232200AF00AE000C
:1004D000005F0060006100A9005C005D005E00AA92
:1004E0000059005A005B00AE001150620028000065
:1004F00000195F1A5F1B5FA900165F175F185FAADC
:1005000000135F145F155FAE001250125F280000E9
:1005100000000000002A00A900205F215F0000AA5F
:10052000001D5F1E5F1F5FAE0013501C5F280000A0
:1005300000400041004200F8003D003E003F00F74F
:10054000003A003B003C00450010504300440009C5
:10055000025B00030100A0FA09040000010301018D
:100560000009211101000122400007058103080054
:10057000010904010002030000000921110100012A
:100580002222000705820320000107050303200043
:10059000010904020001030000000921110100010A
:1005A00022B60007058403200001120100020000AA
:1005B00000088922228901000102000122036D0046
:1005C0006F0065006300680061006E0069006300F1
:1005D00061006C0020006D006400310032000000FA
:1005E00014037000720061007300750064006900FC
:1005F00072006F0000000403090407087F08070069
:100600003E5B4F5B3E003E6B4F6B3E001C3E7C3EB4
:100610001C00183C7E3C18001C577D571C001C5EBB
:100620007F5E1C0000183C180000FFE7C3E7FF00D6
:10063000001824180000FFE7DBE7FF0030483A0607
:100640000E00262979292600407F05050700407FF6
:1006500005253F005A3CE73C5A007F3E1C1C080021
:10066000081C1C3E7F0014227F2214005F5F005F85
:100670005F0006097F017F00006689956A0060605F
:100680006060600094A2FFA2940008047E04080049
:1006900010207E20100008082A1C0800081C2A08C8
:1006A00008001E10101010000C1E0C1E0C0030381C
:1006B0003E383000060E3E0E06000000000000002E
:1006C00000005F000000000700070000147F147F97
:1006D0001400242A7F2A120023130864620036497A
:1006E00056205000000807030000001C22410000B3
:1006F0000041221C00002A1C7F1C2A0008083E081A
:100700000800008070300000080808080800000099
:10071000606000002010080402003E5149453E0080
:1007200000427F4000007249494946002141494D3D
:1007300033001814127F10002745454539003C4A04
:10074000494931004121110907003649494936001C
:10075000464949291E0000001400000000403400F2
:100760000000000814224100141414141400004165
:10077000221408000201590906003E415D594E004D
:100780007C1211127C007F49494936003E414141AB
:1007900022007F4141413E007F49494941007F0994
:1007A000090901003E41415173007F0808087F009C
:1007B00000417F4100002040413F01007F0814229A
:1007C00041007F40404040007F021C027F007F04C8
:1007D00008107F003E4141413E007F0909090600A3
:1007E0003E4151215E007F091929460026494949A9
:1007F000320003017F0103003F4040403F001F20C3
:1008000040201F003F4038403F006314081463003D
:100810000304780403006159494D4300007F4141BE
:100820004100020408102000004141417F00040201
:10083000010204004040404040000003070800005F
:100840002054547840007F284444380038444444BD
:100850002800384444287F003854545418000008B5
:100860007E09020018A4A49C78007F080404780084
:1008700000447D4000002040403D00007F1028449F
:10088000000000417F4000007C04780478007C0870
:1008900004047800384444443800FC182424180028
:1008A00018242418FC007C080404080048545454FC
:1008B000240004043F4424003C4040207C001C20D1
:1008C00040201C003C4030403C004428102844009C
:1008D0004C9090907C004464544C44000008364195
:1008E000000000007700000000413608000002010F
:1008F000020402003C2623263C0000000000000009
:10090000404040F0F8F8FF38FFF8F83FF8F8FF38BB
:10091000FFF8F8F040404000000000000080C0C038
:10092000C0800000C0C08000000080C0C000C0C007
:10093000000080C0C00000000000C0C0C0C0C000F7
:10094000C0C0000000000000000000000000000027
:100950000000000000000000000000000000000097
:100960000000000000000000000000000000000087
:10097000000000000000000000C0F0F8FC3E1E0671
:10098000010000007F4141417F007F4141417F00E4
:100990000080C0E07E5B4F5BFEC00000C000DCD783
:1009A000DEDEDED7DC00C00000000000000000003A
:1009B0000000000000000000000000000000000037
:1009C000494949FFFFFFFFE0DFBFBF00BFBFDFE0D6
:1009D000FFFFFFFF49494900000000001F3F606022
:1009E000E0BF1F007F7F071E381E077F7F007F7FCD
:1009F0000E1F3B716000000000007F7F0C0C0C009C
:100A00007E7E007F7E0303007F7E03037E7E0303E2
:100A10007F7E000F3E703C063C703E0F00327B49EB
:100A2000493F7E007F7E0303001E3F69696F2600F9
:100A3000000000000000000000030F1F3F3C787022
:100A4000600000007F4141417F007F4141417F00C4
:100A5000307B7F7830202030787F3B0003000F7F91
:100A60000F0F0F7F0F0003000000000000000000C8
:100A70000000000000000000000000000000000076
:100A8000010101070F0F7F0F7F0F0F7E0F0F7F0FE9
:100A90007F0F0F07010101000000000000000000AF
:100AA0000001010000000000000000000000000044
:100AB0000000000000000000000000000000000036
:100AC0000000000000000000000000000000000026
:100AD0000000000000000000000000000000000016
:100AE0000000000000000000000000000000000006
:100AF00000000000000000000000000000000000F6
:100B000000000000000000000000000000000000E5
:100B100000000000000000000000000000000000D5
:100B200000000000000000000000000000000000C5
:100B30000000000000000000000011241FBECFEFE5
:100B4000DAE0DEBFCDBF11E0A0E0B1E0E2E8F6E61A
:100B500002C005900D92A43FB107D9F725E0A4EF9C
:100B6000B1E001C01D92A93AB207E1F70E941F2728
:100B70000C9407330C940000E8EDF0E080818E7F48
:100B800080831092E2001092DA001092E100A0EE51
:100B9000B0E08C9181608C9380818F77808319BCC9
:100BA000A7EDB0E08C918E7F8C9380818F7E8083C7
:100BB00010926B0308952091E4003091E50095E6D2
:100BC000A9012091EC00822F817020FF06C0809146
:100BD000E80080FF06C080E008952091E80022FD33
:100BE0001AC080919003882389F0853089F0809124
:100BF000EB0085FD0FC02091E4003091E500421725
:100C00005307F9F29150E1F684E0089582E00895E7
:100C100083E0089581E00895EF92FF920F931F9370
:100C2000CF937C018B010E94DB05C82F811117C077
:100C30008091E80085FD0BC08091E8008E7780935D
:100C4000E8000E94DB05882399F3C82F08C0F7014C
:100C500081917F018093F1000150110949F78C2F98
:100C6000CF911F910F91FF90EF9008958091920383
:100C700087FF13C08091E80082FF06C08091E800E2
:100C80008B778093E80004C0809190038111F2CFAC
:100C90000895809190038823D9F38091E80080FF24
:100CA000F8CF8091E8008E77ECCF982F9093E900F1
:100CB000242F762F50E0891731F07091EC002091AD
:100CC000ED005091F00021FD07C09F5F973071F754
:100CD0008093E90081E008953091EB003E7F3093EE
:100CE000EB003091ED003D7F3093ED003091EB0053
:100CF00031603093EB007093EC002093ED00509343
:100D0000F0002091EE0027FDE0CF80E00895B0E0F4
:100D1000A0E0EDE8F6E00C94202FC8EDD0E088814B
:100D20008F7E8883E7EDF0E080818160808384E0BE
:100D300082BF81E080936B0388818E7F888302EE7F
:100D400010E0F80110821092DA0081EEC82ED12C4A
:100D5000F601108288818F778883888180688883F4
:100D600088818F7D888319BC109290031092910323
:100D700010928F0310928E0390EEE92EF12CF70162
:100D800080818B7F808388818160888342E060E0FE
:100D900080E00E945506F60180818E7F8083F801F5
:100DA000808181608083808188608083F701808179
:100DB0008E7F8083888180618883CDB7DEB7E8E04D
:100DC0000C943C2FFC018091980390919903861715
:100DD0009707A0F06115710529F49091E8009E77BE
:100DE0009093E80090E06115710551F4911108C0ED
:100DF0008091E80082FF34C080E00895BC01F2CF0A
:100E0000809190038823C1F18530C1F18091E80081
:100E100083FD30C08091E80082FDEACF8091E80038
:100E200080FFE1CF8091F3002091F200382F61150F
:100E3000710519F02830310558F091E0283031055E
:100E400009F090E02091E8002E772093E800CBCFC6
:100E500081918093F100615071092F5F3F4FE7CF7F
:100E600080919003882341F0853041F08091E80023
:100E700083FFBECF81E0089582E0089583E0089566
:100E8000089580916D03089587E797E7909301088F
:100E90008093000888E19AE00FB6F894A8958093B3
:100EA00060000FBE90936000FFCF2FB7F894609161
:100EB00062037091630380916403909165032FBF77
:100EC0000895209121012223C9F02091660327FF74
:100ED00015C0E62FE695E695E695EE31D8F4E80FD5
:100EE000F92FF11D677021E030E001C0220F6A95F3
:100EF000EAF720958281282322830895FC01329607
:100F000008962191621303C0DF0111971C92E81724
:100F1000F907B9F70895209121012223C1F020910A
:100F2000660327FF14C0E62FE695E695E695EE31B9
:100F3000F8F4E80FF92FF11D677021E030E001C0EF
:100F4000220F6A95EAF78281822B82830895FC0141
:100F500032962FEF30E04191641751F02F3F19F492
:100F6000411101C0232F3F5F3630A9F72F3F09F40D
:100F70000895820F911D27FD9A95FC0162830895C3
:100F800020915F03309160032817390771F0909327
:100F9000600380935F03E0915D03F0915E033097FF
:100FA00021F00084F185E02D0995089520915B03DF
:100FB00030915C032817390771F090935C0380939C
:100FC0005B03E0915D03F0915E03309721F00680B2
:100FD000F781E02D09950895E0915D03F0915E039E
:100FE000309729F00190F081E02D0995089580E077
:100FF0000895FA01811101C0FB0109950895089532
:1010000080911A0380FF02C08695089580E00895BC
:1010100080911A03982F9E7F29F4817082608093BB
:101020001A0308958A34E8F381708864F8CFAF9288
:10103000BF92DF92EF92FF920F931F93CF93DF93B4
:10104000082F162FE901E42FF0E0EA53FD4F61115C
:1010500010C0E4915E2F4E2F4983E8835A83DF91BD
:10106000CF911F910F91FF90EF90DF90BF90AF90C5
:101070000895E62EF12C4491D42EE42FF0E026E0E2
:10108000829FC00111242FEF30E0B9010E94022F8E
:10109000802F90E0880F991F55E5569FD001579FEC
:1010A000B00D11248A1B9B0B982F990F890F5901A2
:1010B000AE18BF08AE9ED001AF9EB00DBE9EB00D63
:1010C00011245B2F189F80011124012F1127590132
:1010D000A01AB10AAE9E8001AF9E100DBE9E100DEB
:1010E00011245901A81AB108AE9CC001AF9C900D03
:1010F000BE9C900D1124892F9927281B390B2E9FF8
:10110000C0012F9F900D3E9F900D1124E92F62305A
:101110007105A1F050F46115710509F49DCF61309E
:10112000710581F0EB2F512F97CF6430710569F075
:1011300080F06630710509F48FCFF4CFE42F4B2F88
:10114000592F8ACFE42F412F87CFEB2F542F492FD0
:1011500083CF4B2F5D2DE12F7FCF40910B03803F3D
:1011600059F480910C0387FF0DC010920C034111BC
:101170000BC01092030308C0813F81F480910C03DF
:1011800018169CF3442381F080910D0390910E0377
:10119000892B09F05AC0109202030895823F49F446
:1011A00047FFF0CF10920B0380910C038111ECCF1D
:1011B000E0CF833F19F41416ACF3E4CF90910D0304
:1011C000893F29F41916F4F610920D03DBCF8A3FFC
:1011D00019F497FFD7CFF8CF90910E038B3F29F4E6
:1011E00097FFD0CF10920E03CDCF8C3F19F4191674
:1011F000CCF3C8CF9CE0980F953090F4845F990BA6
:1012000021E030E0B90102C0660F771F8A95E2F74E
:10121000CB01809590910A03892380930A03B2CF72
:101220008D3F31F4809104038E7F80930403AACF15
:101230008E3F21F4809104038D7FF7CF8F3F09F01B
:10124000A1CF809104038B7FF0CF08958091040398
:1012500080FD16C081FD16C082FD16C0809102037C
:101260008823A1F0883280F428E0829FC0011124F5
:1012700068E270E00E94672F862F672B39F008958F
:1012800082E0089584E0089588E0089581E008955B
:101290008091040380FD14C081FD14C082FD16C03E
:1012A00080910303882381F08E3180F420E5829FB2
:1012B000C00111246EE170E00E94672F862F08950F
:1012C00084E1089588E2089588E0089580E508950E
:1012D000803F31F40E944809819580930C03089562
:1012E000813F19F40E944809F8CF823F31F40E94EF
:1012F0004809819580930B030895833F19F40E9458
:101300004809F8CF893F29F40E94260980930D03EC
:1013100008958A3F21F40E9426098195F7CF8B3FDB
:1013200031F40E942609819580930E0308958C3F25
:1013300019F40E942609F8CF9CE0980F953070F4BC
:10134000845F990B21E030E001C0220F8A95EAF713
:1013500080910A03822B80930A0308958D3F31F414
:101360008091040381608093040308958E3F21F4EB
:10137000809104038260F7CF8F3FB9F78091040317
:101380008460F1CF80E00895F894E82FE295EF7043
:10139000F0E031A1282F2F7081E090E001C0880F8C
:1013A0002A95EAF7982F9095932391A392A1892BE0
:1013B00082A3789408959091660392FF06C0282F27
:1013C00028712830F9F4877F846093FF06C0282FA6
:1013D00028712831F1F4877E84612091670320FF12
:1013E00006C0382F38713830D9F4877F816021FFEB
:1013F00006C0282F28712831D1F4877E816194FDA1
:10140000877E0895282F24712430F9F68B7F886019
:10141000DCCF282F2471243101F78B7E8861DDCF4A
:10142000382F3171313019F78E7F8860E0CF282F47
:101430002171213121F78E7E8861E1CFCF93DF9337
:10144000EC0182389105A9F1D8F58133910509F4B1
:1014500096C048F58932910509F48AC08A9709F443
:1014600095C0C11521E5D20708F0BCC0C11530E513
:10147000D30708F014C1C83ED10508F09CC0C03E97
:10148000D10560F5C83AD10508F087C0C53AD10545
:1014900008F0FDC0C130D10509F12097F9F0C43042
:1014A000D105E0F440C08533910509F45AC0C997CD
:1014B000C1F680916603837089F0C0EED0E00EC063
:1014C000833E910599F170F4803E910501F1823ED1
:1014D000910539F68091660382FD21C0CE01DF912E
:1014E000CF910895863E910561F1873E910571F196
:1014F000843E910509F0B5CF8091670381FFEECF5F
:1015000080916603C7EED0E084FD0DC0E7CF8091E7
:10151000660380FD12C19091670390FFDFCFC3EE99
:10152000D0E084FFDBCFD0E0C0E0D8CF809166036D
:1015300082FD06C19091670390FDBFCF84FFCECF9F
:10154000F2CF8091660383FDDDCFC8CF8091660323
:1015500083FDF9C09091670391FFF0CFC4EED0E016
:10156000BDCF8091660385FFB9CFC9E2D0E0B6CF89
:101570008091660385FFB2CFC5E3D0E0AFCF809105
:10158000660386FFABCFCAE2D0E0A8CF80916603A6
:1015900086FFA4CFC1E3D0E0A1CFCF3BD10518F6A1
:1015A000C85AD0E0CC0FDD1FCE58DE4F0990D8814D
:1015B000C02DD46493CFC11540E2D40758F4C115AF
:1015C00081E0D80708F08ACFC03FD10508F4ABCF3F
:1015D000D06584CFC11590E4D90708F4A4CFDF709B
:1015E000D06A7CCFC11525E5D20700F5C11534E5D9
:1015F000D30708F08AC0C11543E5D40708F071C0CD
:10160000C11582E5D80708F467C0CE018370992719
:1016100021E030E002C0220F331F8A95E2F7C69521
:10162000C69580E2C89FE001112452C0C11599E51A
:10163000D907A8F4C11528E5D20708F06BC0C11579
:1016400036E5D30708F06FCF8C2F0E94DB09C82F37
:10165000D0E0DC2FCC27CC27DF71D0623FCFC11583
:101660004AE5D40708F45BC0CE019056811590423C
:1016700008F059CF8D2F8F710E94DB0990E0982FD1
:10168000882788279F719C012C2BE901E6CFC55A3A
:10169000D0E0C159DE4FC881D0E0D0641FCFCE0169
:1016A000E4E096958795EA95E1F783702C2F2695CF
:1016B0002695237040E2249F90011124382B8C2F13
:1016C0008370C1E0D0E002C0CC0FDD1F8A95E2F745
:1016D000C22BD32BDC6802CFDC2FCC27C16FD06AA2
:1016E000FDCECE018370992721E030E002C0220FA9
:1016F000331F8A95E2F7C695C69590E2C99FE0012F
:101700001124C22BD32BDA68E9CEDC2FCC27C46F8F
:10171000D06AE4CEDC2FCC27C06FD06ADFCE8C2F0E
:101720008F700E94DB0934E0D695C7953A95E1F7B2
:10173000CF709C2FEC01D069D1CEC9E3D0E0CECEE2
:10174000C2EED0E0CBCEC6EED0E0C8CE80919B02F8
:10175000811110929B020895809590919A0298238E
:1017600090939A020895809177029091460298137F
:1017700001C008958F5F8770FACF943080F5843070
:1017800070F544E0949F90011124820F932F911DD6
:10179000682F677023E0969587952A95E1F7FC01FD
:1017A000EE0FFF1FE80FF91FE65CFD4F50E040E031
:1017B00080E0219130E0062E02C0369527950A94EC
:1017C000E2F721703327042E01C0220F0A94EAF7B2
:1017D000822B4F5F5F4F4330510559F7089580E0EA
:1017E0000895943098F5843088F544E0949F9001F2
:1017F0001124820F932F911D282F277041E001C0E3
:10180000440F2A95EAF723E0969587952A95E1F704
:10181000FC01EE0FFF1FE80FF91FE65CFD4F90E0A3
:1018200080E070E05191DF0111979B01082E02C00A
:10183000369527950A94E2F72170219525272423D0
:1018400025272C9301968330910561F70895CF9257
:10185000DF92EF92FF926B017C0154E0F694E794E3
:10186000D794C7945A95D1F720E0C114D104E1046C
:10187000F10419F0C701B60124E06B017C0142E0DC
:10188000F694E794D794C7944A95D1F7C114D1043C
:10189000E104F10419F02E5FC701B6019695879512
:1018A00077956795672B682B692B09F02F5F822F3F
:1018B000FF90EF90DF90CF900895CF93DF93682F44
:1018C00081E06A3019F06D3031F480E00E94EB0C59
:1018D000DF91CF9108958091A7059091A80526E00A
:1018E000FC01A1EAB5E001900D922A95E1F7603E76
:1018F00008F458C026E0FC0111922A95E9F7C0913E
:10190000A705D091A80546E050E0BE0181EA95E028
:101910000E9413309E01215A3340892B41F1C901A5
:1019200045E0969587954A95E1F741E050E0BA0188
:1019300002C0660F771F8A95E2F7CB0160919F0383
:101940007091A003862B972BB9016B5F7F4FE5E069
:1019500076956795EA95E1F702C0440F551F6A95A1
:10196000E2F7842B952B9093A00380939F032A5F2B
:101970003F4F40919E03642F70E0C9010E94022FE7
:10198000481B463010F4240F311D211572E0370733
:1019900010F030E020E02F553C4F3093A805209305
:1019A000A70596CFF6E06F9FB001112466507A4FDD
:1019B00046E050E00E94FD2FA2CFCF93DF93EC01D1
:1019C000FE018491811103C0DF91CF9108950E949F
:1019D0005D0C2196F5CFCF93382FE091A705F091BC
:1019E000A805E15AF34020919E03622F70E0CF01D9
:1019F0000E94022F281B822F332361F066E00E9491
:101A00004D2FC82FC15010F4CF91089580E20E944D
:101A10005D0CF8CF9F01280F311D2115324018F0C1
:101A200080E0F0E0E0E08E0F9F2F911D8F559C4FDE
:101A30009093A8058093A705E7CF0E94DD0C81E075
:101A40000E94EB0C089580919A0290919902892B43
:101A50008093F60190919B029923A1F0892B8093AA
:101A6000F601809121018823E1F18091660387FFCF
:101A700038C08EE1E8EFF1E090E08150A0F59111DF
:101A80000E94A60B40E250E069E772E086EF91E029
:101A90000E941330892B21F180E2E6EFF1E0A9E703
:101AA000B2E001900D928A95E1F7E0915D03F0912B
:101AB0005E033097A9F080912101882359F080912D
:101AC000660387FF07C08091F6018093F70186E0E7
:101AD0008093F6010280F381E02D86EF91E0099575
:101AE000089586E0C7CF2191222339F29F5FC5CFA9
:101AF000882321F00E94AC0B0E94230D08958823B7
:101B000039F090919A02982B90939A020E94230D9B
:101B100008950F931F93CF93DF93EC01FC01019085
:101B20000020E9F78F0101501109C017D10728F0F3
:101B3000DF91CF911F910F91089589910E945D0CC3
:101B4000F4CFB0E0A0E0E7EAFDE00C94202F6C01B8
:101B50007B0164E670E088E70E94192EEC0197FD96
:101B600012C010E000E0F601E00FF11F849164E67E
:101B700070E00E94872EEC01892B29F40F5F1F4F24
:101B80000E151F0581F70E94FE2ECE01CDB7DEB7E0
:101B9000E8E00C943C2F8091590390915A039111E5
:101BA00003C091E089270895882369F062E070E01E
:101BB0008DEC94E00E94A10D892B19F080915903BE
:101BC00008951092590380915903EBCFCF93C091A0
:101BD000590380915A038823D1F00E945507605A17
:101BE00075418F4F9F4F60935503709356038093B9
:101BF000570390935803C11108C062E070E08BEC6A
:101C000094E00E94A10D892B29F0C09159038C2FDB
:101C1000CF91089581E080935903F7CF80936803B3
:101C200070936A0360936903809190038430F9F4A0
:101C30008093E9008FEF9091E800815095FD06C0F8
:101C400095ED9A95F1F700008111F5CF8091E800AC
:101C500085FF0DC050E040E063E070E088E693E06F
:101C60000E940C068091E8008E778093E80008952A
:101C7000BC0184E00E940E0E0895BC0183E00E9426
:101C80000E0E08959C0184E08093E9009FEF8091FF
:101C9000E800915085FD06C085ED8A95F1F70000BA
:101CA0009111F5CF8091E80085FF0CC050E040E035
:101CB00066E070E0C9010E940C068091E8008E7712
:101CC0008093E8000895CF93DF93EC018091210188
:101CD0008823B1F18091660387FF32C060E284E01F
:101CE0008093E9008FEF9091E800815095FD06C048
:101CF00095ED9A95F1F700008111F5CF8091E800FC
:101D000085FF1BC08091210170E050E040E081110F
:101D100004C050E040E068E070E0CE010E940C0694
:101D20008091E8008E778093E80080E2FE01AEE6C5
:101D3000B3E001900D928A95E1F7DF91CF9108957C
:101D400068E081E0CDCF80911A0380FD0AC0EFE109
:101D5000F3E0118210821282339653E0E535F507E5
:101D6000C1F7539A3BB1377F2BB128604FB7F89436
:101D70008FE193E0FC015191CF0168E02BB90000A5
:101D800000C057FF3BB9550F000000C000C000C0A5
:101D90003BB900C06A9591F7F3E085359F0751F78D
:101DA0004FBF8FE594E00197F1F700C00000089560
:101DB000EF92FF920F931F93CF93DF938C01CFE1AC
:101DC000D3E0F12CE12CF801948160911C03809107
:101DD0001B03F9E0EF16F104ECF49923E9F09E01FE
:101DE00040911D030E9417082FEFE21AF20A239672
:101DF00082E1E816F10439F70E94A30EF80184810C
:101E000090E00196817099278483CDB7DEB7E6E034
:101E10000C943E2F992319F39E0140E0E3CFB0E0EC
:101E2000A0E0E5E1FFE00C941C2FEC014C81042FB5
:101E300010E09801D8010E94B22F9B01AC010E94D2
:101E4000C82F4B015C01E0E2F0E0E01BF10BA5E5DF
:101E5000B0E0AC019B010E94C82F6B017C019F0187
:101E6000DF010E94AA2F9B01AC010E94D32F9B018E
:101E7000AC01280D391D4A1D5B1DC701B6010E942A
:101E80007B2FF22E822F90E039E23F1598F143E04C
:101E9000249F9001112435952795122F10959FE1CD
:101EA000C92E93E0D92E00E085E5E82EEF188E2D9F
:101EB00001FD8F2D9601412F60911C030E94170890
:101EC0000F5F53E0C50ED11C023189F70E94A30EAB
:101ED0009C8181E0992319F0903219F48FEF80935F
:101EE000200180912001890F8C83CDB7DEB7ECE013
:101EF0000C94382F25E530E0A901481B590BCA0185
:101F00009A01220F331F280F391F37FFC4CF2F5FCD
:101F10003F4FC1CF0F931F93CF93DF93CFE1D3E018
:101F2000FE01118210821282339683E0E535F807B4
:101F3000C1F710E000E080911803082E000C990B07
:101F4000081719078CF180911F01082E000C990BBE
:101F5000801791074CF19E0140911D0360911C0375
:101F600080911B030E9417080F5F1F4F23960231B9
:101F7000110509F70E94A30E80911E01909118038C
:101F8000980F9093180320911F01280F20931F0191
:101F9000121614F491311CF0819580931E01DF918B
:101FA000CF911F910F910895198218821A82DCCF68
:101FB000B0E0A0E0EEEDFFE00C941F2FFC01828169
:101FC000DD24DA9480FD02C0DD24D3940FE113E018
:101FD000D0E0C0E022E1B22EF8011182108212821C
:101FE00094E0E92EF12CC12C809117038C0D8331E4
:101FF000C4F16B2D0E94592F892F082E000C990BCC
:102000008C179D0791F480911D038E9DA0018F9DDB
:10201000500D112455954795559547959801609118
:102020001C0380911B030E941708CD0CF1E0EF1AEE
:10203000F108D1F621960D5F1F4FC231D10561F62F
:102040000E94A30E8091170391E0D91210C0811154
:102050000CC081E180931703CDB7DEB7E9E00C94A3
:102060003B2F87FFCACF8E5EC8CF8150F3CF90E061
:102070000196BE010E94672FEDCFEF92FF921F9352
:10208000CF93DF93EC018FE1E82E83E0F82E10E090
:102090008C81970140911D0360911C03810F0E9468
:1020A0001708125F83E0E80EF11C1C3F89F70E94BD
:1020B000A30E9A818C8190FF08C08F5F8C83DF9183
:1020C000CF911F91FF90EF9008958150F7CF90919D
:1020D0001A0390FF0CC0EFE1F3E081836083428339
:1020E000339693E0E535F907C1F70E94A30E0895F2
:1020F000A3E0B0E0EEE7F0E10C94242F8C01809196
:10210000190381110AC09E012F5F3F4F4FEF6FEF00
:102110000E9417088A8180931903F8016481613055
:1021200069F08091190340E0662361F040E062307D
:1021300011F44091190380E060E004C0609119033C
:1021400040E080E00E946710F801848190E00196F1
:1021500063E070E00E94672F84832396E4E00C9490
:10216000402FA3E0B0E0E7EBF0E10C94262F909134
:102170001A0390FF0AC09E012F5F3F4F0E9417086D
:102180004B8169818A810E9467102396E2E00C945A
:10219000422FCF93DF93EC01EAE1F3E043816281C8
:1021A0008C810E94B1108C818F5F8C83DF91CF91E5
:1021B0000895CF93DF93EC01EC81F0E0E553FC4F01
:1021C0004491EAE1F3E0628181810E94B1108C8147
:1021D0008F5F8C83DF91CF910895CF93DF93C7EA10
:1021E000D0E060E0CE010E94D3322196C11584E098
:1021F000D807B9F7DF91CF9108951F93CF93DF935D
:10220000122F8430E8F46430D8F44430C8F428E065
:10221000629FE001112450E0440F551FC40FD51FE9
:1022200020E2829FC0011124C80FD91F632FCE0165
:1022300087960E94D332612FCE0188960E94D332B6
:10224000DF91CF911F910895AF92BF92CF92DF920D
:10225000EF92FF921F93CF93DF938FECC82E84E011
:10226000D82ED0E07601C0E014C0F501259134915C
:10227000412F6C2F8D2F0E94FD1082E0A80EB11C03
:102280001F5F143091F788E0E80EF11CCF5FC43077
:1022900019F0570110E0E9CFDF5F80E2C80ED11CD2
:1022A000D43001F7DF91CF911F91FF90EF90DF9035
:1022B000CF90BF90AF900895CF93C82F6FEF81114B
:1022C00062E283E290E00E94D3326FEFC11167E0D7
:1022D00084E290E00E94D3326FEFC11160E285E2A8
:1022E00090E00E94D332CF91089580E00E945C116B
:1022F00060E086E290E00E94D3320E9424110E94A6
:10230000ED1081E00E945C1108950F931F93CF930D
:10231000DF93843038F5643028F5443018F528E030
:10232000629F8001112450E0440F551F040F151FB8
:1023300030E2839FC0011124080F191FC80187963E
:102340000E94BF32C82FD0E0DC2FCC27C80188966E
:102350000E94BF329E01282BC901DF91CF911F91AE
:102360000F91089590E080E0F8CF462F843040F43C
:10237000743030F4643020F4672F0E948511089582
:1023800090E080E00895CF92DF92FF920F931F9329
:10239000CF93DF936C0100919D0380919C02082BE9
:1023A000C7E0D0E010E0FC2EC8010C2E02C09595CD
:1023B00087950A94E2F780FD0CC02197A0F7F12CD5
:1023C0008F2DDF91CF911F910F91FF90DF90CF90D4
:1023D0000895B6018C2F0E94B5110E941E0A019724
:1023E00061F3EECFCF93DF93EC010E94C311BE01E6
:1023F0000E94B5110E941E0ADF91CF910895FC0141
:10240000808191810E94F21192959F70963091F097
:1024100058F4925F9F70923058F4803F19F030F476
:10242000883E30F481E008959A5FF4CF843FD1F381
:1024300080E00895883EB0F3813FD1F7F3CF83E287
:1024400090E00E94BF32823289F484E290E00E94E0
:10245000BF32873059F485E290E00E94BF3291E0AC
:10246000803209F090E0892F8170089580E0FCCFE0
:10247000CF9384E090E00E94BF32C82F82E290E0C8
:102480000E94BF32982F8C2FCF910895CF92DF9268
:10249000EF92FF926B017C010E940808B701A60130
:1024A00088E090E00E94E532FF90EF90DF90CF90BF
:1024B0000895A3E0B0E0EFE5F2E10C94192FF82EB7
:1024C000762EE42E622E90911A0390FF29C0E92FF8
:1024D000E695AE2FB0E0A054BE4F8C9180931503CB
:1024E0009E7F923009F59E012F5F3F4F8F2D0E94F6
:1024F00017084B8169818A810E946710F0921B0343
:1025000070921C03E0921D03662051F060911A0343
:1025100070911B0380911C0390911D030E94461231
:102520002396EFE00C94352F823019F4E0901D03D0
:10253000E5CF863019F4F0901B03E0CF8930D9F352
:102540008931E1F6E9518E2F8170582EE695F0E041
:10255000EA53FC4FE4910E2F10E08FE1C82E83E088
:10256000D82EB12CA12C92E1892E912CC501B40159
:102570000E94022F8F2D511013C0860F96014E2DF1
:10258000672D0E941708A00EB11E83E0C80ED11C53
:1025900085E5C81683E0D80649F70E94A30EAECFA2
:1025A000861BECCFEAE1F3E0438121E1421B08F412
:1025B00040E021E0628181810E9459120895EAE1A0
:1025C000F3E0438121E1420F08F44FEF21E0628103
:1025D00081810E9459120895EAE1F3E0628121E1CC
:1025E000621B08F460E021E0438181810E9459125E
:1025F0000895EAE1F3E0628121E1620F08F46FEFF0
:1026000021E0438181810E9459120895EAE1F3E0BB
:10261000818121E04381628188500E94591208958E
:10262000EAE1F3E0818121E043816281885F0E94D9
:102630005912089580911E03882319F081508093C8
:102640001E0360911A0370911B0380911C039091EB
:102650001D030E944612089580911E03833018F4D2
:102660008F5F80931E0360911A0370911B0380910A
:102670001C0390911D030E9446120895EAE1F3E0C5
:1026800083E0808311828FEF828383831482608151
:102690007181828193810E944612089568EE7EEFD7
:1026A00090E080E00E94F13260E082E090E00E94E1
:1026B000D33260E083E090E00E94D33210929C021B
:1026C00060E084E090E00E94D33264E082E290E037
:1026D0000E94D33260E085E090E00E94D33260E057
:1026E00086E090E00E94D3326FEF87E090E00E9496
:1026F000D33240E050E0BA0188E090E00E94E53239
:1027000060E08DE090E00E94D33240E050E0BA01FA
:1027100088E190E00E94E53260E087E190E00E946D
:10272000D33240E050E0BA018CE190E00E94E53203
:1027300070E060E080E290E00E94F13240E050E022
:10274000BA0188E190E00E94E53280E00E945C11CD
:102750000E94751140E050E0BA018FE090E00E94C5
:10276000E53240E050E0BA0183E190E00E94E532BA
:10277000089590E080E00E94CD32883E9E4F19F48B
:102780000E941F12089580E008951F920F920FB6C5
:102790000F9211242F933F934F935F936F937F93E7
:1027A0008F939F93AF93BF93EF93FF938091E1003B
:1027B00082FF09C08091E20082FF05C08091E100A4
:1027C0008B7F8093E1008091DA0080FF24C08091AC
:1027D000D80080FF20C08091DA008E7F8093DA00DD
:1027E0008091D90080FF9DC080E189BD82E189BDD3
:1027F00009B400FEFDCF81E08093900380916B03CC
:10280000811109C00E94BC050E9487068091E200E8
:1028100084608093E2008091E10080FF17C0809186
:10282000E20080FF13C08091E2008E7F8093E2007F
:102830008091E20080618093E2008091D800806204
:102840008093D80019BC85E0809390038091E100CB
:1028500084FF2BC08091E20084FF27C080E189BD06
:1028600082E189BD89B5982F917080FFFBCF80915F
:10287000D8008F7D8093D8008091E1008F7E809377
:10288000E1008091E2008F7E8093E2008091E2007F
:1028900081608093E20080919103882309F447C00E
:1028A00084E080939003809190038091E10083FF06
:1028B00027C08091E20083FF23C08091E100877FE1
:1028C0008093E10082E080939003109291038091C5
:1028D000E1008E7F8093E1008091E2008E7F809303
:1028E000E2008091E20080618093E20042E060E0DB
:1028F00080E00E9455068091F00088608093F0008F
:10290000FF91EF91BF91AF919F918F917F916F91C7
:102910005F914F913F912F910F900FBE0F901F909D
:10292000189519BC1092900310926B0374CF80918C
:10293000E30087FD93E090939003B5CF78941F92C6
:102940001FB61F9211248F939F93AF93BF938091D3
:10295000620390916303A0916403B09165030196B3
:10296000A11DB11D8093620390936303A093640340
:10297000B0936503BF91AF919F918F911F901FBE40
:102980001F9018959C014FB7F89480916203909125
:102990006303A0916403B09165034FBF821B930B47
:1029A00008952FB7F8948091620390916303A091EA
:1029B0006403B09165032FBF089590911A0390FFAF
:1029C0002CC0917081112AC0926090931A036623E3
:1029D00051F060911A0370911B0380911C03909138
:1029E0001D030E94461260911A03669570E04BE049
:1029F00050E083E191E00E940630892BB1F0109203
:102A0000160381E08093120320E040911D03609142
:102A10001C0380911B030E9459120895853210F007
:102A20009864D3CF880F982BD0CF81E08093160382
:102A30000E94D1149093100380930F03E2CF8091F2
:102A40001A038695815009F484E261E00E94DD1446
:102A5000089580911A0386958F5F853208F081E092
:102A600061E00E94DD140895CF93DF93C82FD62F25
:102A70000E9400088C1738F08D1728F40E94291541
:102A8000DF91CF91089561E08C2F0E94DD14F8CF83
:102A90000E94D1149C0190910B0380910C03982B00
:102AA00021F0309308032093070390910D03809148
:102AB0000E03982B21F03093060320930503E09139
:102AC0005D03F0915E03309749F082E08093090343
:102AD0000480F581E02D89E093E00995089590E068
:102AE00080E00E94D60790E080E00E94C00710922C
:102AF00099020E94230D86E0E9E0F3E0DF011D92D8
:102B00008A95E9F7109203031092020310920403CE
:102B10000E944815089580939D030E946F150895A3
:102B200080919D03982F9670963021F488600E94C2
:102B30008B150895877FFBCF21E030E001C0220F85
:102B40008A95EAF7209580919D0382230E948B1538
:102B50000895909178028095892380937802282F98
:102B6000277091F4282F082E000C330B92171306B0
:102B700059F09091670392FF07C0859585958595DB
:102B80000E949C15109278020895CF93C09167031C
:102B9000C2FB992790F9981791F080FBC2F9C09376
:102BA00067036091660384E090E00E94D3326C2F4B
:102BB00082E290E00E94D33282E00E94A915CF9178
:102BC000089521E030E001C0220F8A95EAF7809154
:102BD0009D03822B0E948B15089580939C020E9476
:102BE0006F15089510929A0280912101E8EFF1E0AB
:102BF000882361F08091660387FF08C08EE1DF01C2
:102C00001D928A95E9F70E946F15089586E0F7CF27
:102C1000AAE2B0E0EEE0F6E10C94252F82E993E021
:102C20002091F100DC012D93CD01B3E08A399B079F
:102C3000B9F780919303833009F472C0B8F48130FE
:102C400009F449C0823009F4B3C08091E80083FFE1
:102C50008BC280919203909193039A3008F084C2C2
:102C6000E92FF0E0E75FFC4C0C949D2F8A3009F4CB
:102C70008EC08B3009F471C0893039F7809192038E
:102C8000813219F78091960390919703009711F084
:102C90000297D9F68091E800877F8093E8008091C1
:102CA000E80082FF38C09091F3008091F200029713
:102CB00031F48091F100813011F0863021F480915F
:102CC000F10080936D038091E8008B778093E8009A
:102CD0000E943606BACF80919203813A09F0B5CFAF
:102CE0008091E800877F8093E8008091960390911F
:102CF0009703892B61F460E28EE693E070E00E9416
:102D0000E2068091E8008B778093E8009ECF60E038
:102D100090E080E0F3CF809190038111C0CF95CFF8
:102D200080919203813A09F090CF8091960390911F
:102D30009703892B09F089CF8091E800877F8093E2
:102D4000E8008091E80080FFFCCF80912101809312
:102D5000F1008091E8008E77B9CF809192038132A3
:102D600009F073CF8091960390919703892B09F016
:102D70006CCF8091E800877F8093E8000E94360640
:102D800080919403809321010E94F2155ECF80917F
:102D90009203813209F059CF8091E800877F8093B8
:102DA000E8000E9436068091950380936C034DCF16
:102DB00080919203813A09F048CF8091E800877FA3
:102DC0008093E8008091E80080FFFCCF80916C0345
:102DD000BECF803899F0823809F0C6C18091960341
:102DE0008F70873008F0C0C18093E9008091EB00BC
:102DF00085FB882780F91092E90006C080918E0338
:102E000090918F03911182609091E800977F909349
:102E1000E8008093F1001092F1008091E8008E7735
:102E20009FC1882309F48DC1823009F09DC1809132
:102E30009403811190C1809196038F702FEF280F1A
:102E4000263008F091C18093E9002091EB0020FF2B
:102E500082C1933031F48091EB0080628093EB006B
:102E60007AC19091EB0090619093EB0021E030E00B
:102E700001C0220F8A95EAF72093EA001092EA0037
:102E80008091EB008860EACF81116EC110919403AC
:102E90001F778091E3008078812B8093E3008091FD
:102EA000E800877F8093E8000E9436068091E80062
:102EB00080FFFCCF8091E30080688093E30082E094
:102EC000111183E0809390034FC18058823008F045
:102ED0004BC120919403309195032C3DE3E03E07D4
:102EE000A1F583E08A838AE289834FB7F894DE01F3
:102EF000139620E03EE051E2E32FF0E050935700BC
:102F0000E49120FF03C0E295EF703F5FEF708E2FDA
:102F100090E0EA30C0F0C7968D939D932F5F2431E7
:102F200059F74FBF8091E800877F8093E8006AE2FD
:102F300070E0CE0101960E94E2068091E8008B7756
:102F40008093E80011C1C096E7CF809196039091DD
:102F50009703432F55274330510509F44AC078F5AC
:102F60004130510509F47AC08BE590E0EFE4F5E0DB
:102F70004230510509F0F8C02091E800277F2093E6
:102F8000E80020919803309199038217930708F481
:102F90009C0140E02115310509F065C0411163C075
:102FA0008091E80082FDC9CF80919003882329F2A7
:102FB000853019F28091E80083FFF2CFBECF413215
:102FC000510509F43CC04232510509F0CDC08330AF
:102FD000910508F0C9C0FC01EE0FFF1FE851FE4F3C
:102FE0000190F081E02D8B519E4FDC018C9190E09F
:102FF0001AC0332721303105D1F02115310561F098
:103000002230310509F0B0C0ECEBF5E0E4918E2FF1
:1030100090E0ECEBF5E007C0E6EFF5E0E4918E2FF1
:1030200090E0E6EFF5E0009709F49EC0A5CFE0EE52
:10303000F5E0E4918E2F90E0E0EEF5E0F4CF833000
:10304000910508F091C0880F991FFC01E251FE4FD5
:103050000190F081E02D89E090E08ECF82E190E058
:10306000EAEAF5E089CF80919003882309F465CFDF
:10307000853009F462CF8091E80083FD5ECF8091B6
:10308000E80082FD8DCF8091E80080FF83CF909192
:10309000F3008091F2002115310519F08830910577
:1030A00050F041E0089709F040E08091E8008E7709
:1030B0008093E8006FCF44914093F1003196215006
:1030C00031090196E8CF803809F04EC08091E800C0
:1030D000877F8093E800809191038093F1009DCEDB
:1030E000811142C0109194031230F0F58091E800F4
:1030F000877F8093E800109391030E943606112386
:1031000011F084E005C08091E30087FDFACF81E0F3
:103110008093900342E061EC81E00E94550642E218
:1031200061EC84E00E94550642E261EC82E00E947C
:10313000550642E260EC83E00E94550680919003C0
:1031400013C080919403813079F481E0933009F0C9
:1031500080E080938F031092E9008091E800877FE0
:103160008093E8000E9436068091E80083FF0AC041
:103170008091E800877F8093E8008091EB00806277
:103180008093EB00AA96E3E00C94412F1F920F92DC
:103190000FB60F9211242F933F934F935F936F932A
:1031A0007F938F939F93AF93BF93CF93DF93EF93CF
:1031B000FF93D091E900DF708091EC00C82FC170BF
:1031C00080FDC0E81092E9008091F000877F809335
:1031D000F00078940E9408161092E9008091F000A7
:1031E00088608093F000CD2BCF70C093E900FF91F1
:1031F000EF91DF91CF91BF91AF919F918F917F918F
:103200006F915F914F913F912F910F900FBE0F9053
:103210001F9018950E94F2152FEF84E39CE0215037
:1032200080409040E1F700C0000088E19AE00FB6CE
:10323000F894A895809360000FBE90936000FFCF34
:10324000882391F19CEF980F913A40F4682F86EF14
:1032500091E00E9461070E94230D089590E2980F6B
:10326000983050F4877091E001C0990F8A95EAF781
:10327000892F0E94AC0BEFCF9BE5980F933028F479
:1032800090E080E00E94D607089598E5980F973166
:1032900028F490E080E00E94C0070895803F20F06D
:1032A0000E94AD080E9448150895CF93C82F882327
:1032B000D1F18CEF8C0F813AC0F5809121018823E8
:1032C00011F18091660387FF1EC0EC2FE695E6950D
:1032D000E695F0E0EA50FE4F828190E04C2F477077
:1032E00021E030E002C0220F331F4A95E2F782232B
:1032F0009323892B89F06C2F86EF91E00E94610760
:103300000E94230D09C0E8EFF1E08191C81799F3FD
:1033100081E0EE3FF807C9F76C2F86EF91E00E943D
:103320008B070E94230DCF91089580E28C0F883087
:1033300068F4C77021E030E001C0220FCA95EAF7B7
:1033400080919A02822B80939A02EBCFEBE5EC0FEF
:10335000E33040F4F0E0E159FE4F808190E00E94BC
:10336000D607E1CFE8E5EC0FE73150F4F0E0EE0FDF
:10337000FF1FEE58FE4F808191810E94C007D3CF7E
:10338000C03F88F28C2F0E9468090E944815CBCF5D
:103390001F93CF93DF93182FD0E0C0E0893311F44F
:1033A000C0E5D0E0812F0E945519209739F4812F74
:1033B0000E942019DF91CF911F9108958FE99FE01E
:1033C0000197F1F700C000002197EFCF0F931F93F3
:1033D000CF93DF93C62FD42F022FFC018281882345
:1033E000A9F060939C030E94D11490939B03809357
:1033F0009A03C77081E001C0880FCA95EAF70E945E
:103400007F0DDF91CF911F910F91089580919C03C3
:10341000681332C080919A0390919B030E94C2145A
:10342000883C910548F510E21D0FCD17B9F080E2F8
:103430008C0F883040F4C77081E001C0880FCA95B6
:10344000EAF70E94780D183048F481E09D2F9770BC
:1034500001C0880F9A95EAF70E947F0D802F0E9485
:10346000C819183070F6D77081E001C0880FDA955E
:10347000EAF70E94780DC5CFC77081E001C0880FC0
:10348000CA95EAF7F6CFA8E0B0E0E9E4FAE10C94D7
:10349000162F2C01FC0183819481892B39F08081C6
:1034A000918189238F3F11F00C94EC232896E2E15F
:1034B0000C94322F0E94C311182F682F89819A8192
:1034C0000E94F10B69817A81812F0E94B5114C0114
:1034D0008150954534018F3F910510F4F5E57F2625
:1034E000F201F281F887FF2309F4CAC22FEF6216B6
:1034F000710401F1F8F03AE263163DE5730621F03C
:103500001092360234015FC08091360291E0892723
:103510008093360280917802877041F2F2018281B5
:10352000882321F28091670382FFC0CF82E00E944E
:10353000A915BCCF80913602882309F436C11092B8
:10354000360280EC6816710408F087C090E86916AE
:10355000710408F0F4C0E0E46E16710408F0B9C01C
:1035600021E030E040E050E060E070E080E090E09A
:10357000062D0E94DB2FE09116022E2BE091170200
:103580003E2BE09118024E2BE09119025E2BE09148
:103590001A026E2BE0911B027E2BE0911C028E2BF7
:1035A000E0911D029E2B2093160230931702409348
:1035B00018025093190260931A0270931B028093B1
:1035C0001C0290931D02C30182519F45409710F049
:1035D0000C9483238FEF93E00E94BF3281119ACF26
:1035E0000EEE060D57EA852E912C0111CCC21C82DD
:1035F0001B82662463944AE0342E84010F5F1F4FC0
:10360000C4010E94BF3289831A82882309F482CFC1
:103610009FEF980F933008F0C5C28A83698292E0C9
:10362000890E911CC8010E94BF328B83882309F444
:1036300071CF8E010F5F1F4FF80120812223E9F225
:10364000213009F0E9C291818281913009F0ACC248
:103650000E5F1F4F0E94C819ADC2FFEF6F167104B5
:1036600011F008F07DCF21E030E040E050E060E074
:1036700070E080E090E08301005C11090E94DB2F84
:10368000E0912E022E2BE0912F023E2BE091300292
:103690004E2BE09131025E2BE09132026E2BE091D5
:1036A00033027E2BE09134028E2BE09135029E2B6B
:1036B00020932E0230932F02409330025093310218
:1036C00060933202709333028093340290933502F8
:1036D0007ACF21E030E040E050E060E070E080E050
:1036E00090E08301005411090E94DB2FE0911E023B
:1036F0002E2BE0911F023E2BE09120024E2BE091F9
:1037000021025E2BE09122026E2BE09123027E2BA0
:10371000E09124028E2BE09125029E2B20931E0225
:1037200030931F02409320025093210260932202A3
:1037300070932302809324029093250244CF21E0CA
:1037400030E040E050E060E070E080E090E0830135
:10375000005811090E94DB2FE09126022E2BE091E8
:1037600027023E2BE09128024E2BE09129025E2B8E
:10377000E0912A026E2BE0912B027E2BE0912C022D
:103780008E2BE0912D029E2B209326023093270250
:10379000409328025093290260932A0270932B02CF
:1037A00080932C0290932D020ECF20E462167104B8
:1037B00008F06EC0E0911602F0911702B091180265
:1037C0003090190220901A02A0911B0230911C0225
:1037D0003E8380911D028F8321E030E040E050E085
:1037E00060E070E080E090E0062D0E94DB2FA22ECA
:1037F000AE22B32EBF22C42ECB22D52ED320E62E4E
:10380000E220F72EFA220E8108231F8119230E943D
:10381000F42F09F077CE90EC6916710408F09AC085
:1038200020E86216710408F0FBC030E463167104EE
:1038300008F0C6C021E030E040E050E060E070E019
:1038400080E090E0062D0E94DB2F2095309540957A
:10385000509560957095809590952E233F234B232E
:10386000532162217A23EE818E23FF819F232093AF
:103870001602309317024093180250931902609376
:103880001A0270931B0280931C0290931D0242CE79
:1038900090E869167104F0F4E0911E02F0911F02A5
:1038A000B09120023090210220902202A0912302A8
:1038B000209124022E83309125023F8321E030E0C5
:1038C00040E050E060E070E080E090E08301005470
:1038D00011098BCF80EC68167104F0F4E091260298
:1038E000F0912702B09128023090290220902A02FC
:1038F000A0912B0290912C029E8320912D022F8368
:1039000021E030E040E050E060E070E080E090E0F6
:1039100083010058110969CFE0912E02F0912F0226
:10392000B09130023090310220903202A0913302E7
:10393000309134023E83809135028F8321E030E064
:1039400040E050E060E070E080E090E08301005CE7
:1039500011094BCF8FEF6816710411F008F06ACF90
:103960008301005C110921E030E040E050E060E0BC
:1039700070E080E090E00E94DB2F2095309540952C
:10398000509560957095809590952E233F234B23FD
:10399000532162217A23EE818E23FF819F2320937E
:1039A0002E0230932F0240933002509331026093E5
:1039B0003202709333028093340290933502AACD81
:1039C00083010054110921E030E040E050E060E064
:1039D00070E080E090E00E94DB2F209530954095CC
:1039E000509560957095809590952E233F234B239D
:1039F000532162217A23EE818E23FF819F2320931E
:103A00001E0230931F0240932002509321026093C4
:103A100022027093230280932402909325027ACD90
:103A200083010058110921E030E040E050E060E0FF
:103A300070E080E090E00E94DB2F2095309540956B
:103A4000509560957095809590952E233F234B233C
:103A5000532162217A23EE818E23FF819F232093BD
:103A60002602309327024093280250932902609344
:103A70002A0270932B0280932C0290932D024ACD40
:103A80002FEF6216710409F060F530E463167104DB
:103A9000B0F5A0901602B0901702C0901802D09016
:103AA0001902E0901A02F0901B02E0911C021091A2
:103AB0001D0221E030E040E050E060E070E080E096
:103AC00090E0062D0E94DB2FA222B322C422D52231
:103AD000E622F722082F0E2319230E94F42F09F45F
:103AE00019CD20E182162FE5920609F4EEC031E1EE
:103AF00083163FE5930609F04DC682E0E7C080E8F3
:103B000068167104A0F4A0901E02B0901F02C0902D
:103B10002002D0902102E0902202F0902302E09156
:103B200024021091250290E4691A7108C2CFE0ECDA
:103B30006E167104A0F4A0902602B0902702C090E7
:103B40002802D0902902E0902A02F0902B02E09106
:103B50002C0210912D02F0E86F1A7108AACFA090E4
:103B60002E02B0902F02C0903002D0903102E0902F
:103B70003202F0903302E09134021091350220ECD1
:103B8000621A710896CF811434E0930609F4C2CC0E
:103B9000C4010E94BF32811101C001508FEF881A09
:103BA000980A23CD480145CD923039F40E5F1F4F5E
:103BB0000E9455190F5F1F4F3FCD933029F40E5FC0
:103BC0001F4F0E942019F6CF943019F00F5F1F4F3E
:103BD000F1CF0E5F1F4F30E020E0B8016F5F7F4FE5
:103BE000F80141818053990B8A30910550F02150A2
:103BF000310900F38FE99FE00197F1F700C0000061
:103C0000F6CF329EF001339EF00D11249C012E0F51
:103C10003F1F842F8B01E1CFE22FF0E0EC50FE4FED
:103C20007490822F86958695869590E0FC01EC51E4
:103C3000FE4FC4902770D12C022E02C0D594C79499
:103C40000A94E2F7E1E0CE22DD24FC01EC52FE4FC3
:103C5000A490B12C022E02C0B594A7940A94E2F766
:103C6000F1E0AF22BB24FC01EC53FE4FE490F12CB9
:103C700002C0F594E7942A95E2F721E0E222FF24BE
:103C8000C114D10419F081EE0E945519A114B10498
:103C900019F086EE0E945519872D0E94C819A114AB
:103CA000B10419F086EE0E942019C114D10419F054
:103CB00081EE0E942019E114F10409F47BCF8CE21B
:103CC000C9CC81E00E94E11503C081E00E949C15EF
:103CD0000E9490151FCCE885EE2309F40ECF82E0F8
:103CE000F1CF1092380210923702E6ECF2E08AED42
:103CF00092E020E221938E179F07E1F73DC525EF63
:103D000082162CE5920609F46EC008F468C027E21A
:103D100045EE66EE86EF88168CE5980609F457C5E1
:103D2000F2018281882309F46AC510929C03F3E0B2
:103D30008F16FDE59F0608F05DC02AEF82162CE580
:103D4000920630F4C40182509C45449708F05EC04E
:103D50000E943812909367038093660391E189165D
:103D60009CE5990609F43FC108F0B1C0F9E08F164F
:103D7000FCE59F0609F421C108F076C035E0831602
:103D80003CE5930609F411C108F058C093E0891688
:103D90009CE5990609F4FFC008F003C18091660311
:103DA0008160F2E08F16FCE59F0609F4F7C0609190
:103DB00066031091670384E090E00E94D332612F84
:103DC00082E290E00E94D3320E94F215A3CB27E258
:103DD00045EE65EEFCC426E241EE60EEF8C427E253
:103DE00045EE64EEF4C426E241EE62EEF0C428E251
:103DF00041E0EFCF31E683163DE5930609F4A8CF05
:103E000085EA88168DE5980609F4A2CF26E1821688
:103E10002CE5920609F055C280919A028A7A91E0C7
:103E200009F490E09093390269E2811165E386EF2D
:103E300091E00E948B070E94230D6CCB809166035A
:103E4000806227E082162CE5920609F4A7C08091D3
:103E50006603806138E083163CE5930608F49EC053
:103E60008091660380649AC08DE088168CE5980680
:103E700009F4ADC0B0F4809166038E7FEBE08E163E
:103E8000ECE59E0609F48AC0809166038C60FCE034
:103E90008F16FCE59F0608F481C0809166038D7F34
:103EA0007DC0809166038F7E2FE082162CE59206FE
:103EB00009F474C080916603877F30E183163CE586
:103EC000930608F46BC0809166038F7D67C08DEF09
:103ED00088168CE5980609F482C078F5E5E18E161F
:103EE000ECE59E0609F489C0A0F480916603837F07
:103EF00023E182162CE5920609F450C008F477C03D
:103F00000E94F21590916603892F97FB87F98058DC
:103F100045C08BEF88168CE5980609F44AC008F076
:103F20005AC0809167038160EAEF8E16ECE59E0629
:103F300009F03DCF809367033ACFF1E08F16FDE59E
:103F40009F0609F466C098F4809167038C7F3FEF69
:103F500083163CE5930671F3B0F180916703982FC7
:103F6000909591708E7F892B90FB81F9E3CF91E63C
:103F700089169DE5990609F452C0E5EA8E16EDE52D
:103F80009E0609F453C0F2E08F16FDE59F0609F086
:103F90000ECF60E03FC0809166038260809366032D
:103FA00006CF809166038460F9CF809166038860B4
:103FB000F5CF809167038260BDCF0E94F21580919A
:103FC00066038068EBCF809167038360B3CF8091F5
:103FD00066038B7FE3CF809167038E7FABCF8091A9
:103FE00067038D7FA7CF809166038F7BD7CF0E9419
:103FF000F215809166038F77D1CF8091660382FBA3
:10400000992790F921E0922790FB82F990FB83F9A0
:10401000C5CF61E08EE090E00E94D332C8CE90918F
:104020006603892F8F7E94FF8061B8CF90916603DD
:10403000892F8E7F90FF8160B1CF80919A0282722A
:104040003CEC83163CE5930609F421C108F098C0C6
:10405000E6EC8E16ECE59E0609F405C108F069C091
:1040600023EC82162CE5920609F4F3C008F04EC04A
:1040700082EC88168CE5980609F4C6C0F2018281AC
:1040800000811181882309F458C1C8010E94C3111D
:10409000F82E682FC8010E94F10BB8018F2D0E94E5
:1040A000B5110E941E0A8C01A82EF201F280D58063
:1040B000D2943FE0D322809178028770C1F0CF2C58
:1040C000FF20B1F0812F807F803421F080E2800FCB
:1040D000883068F08091670382FF09C082E00E9407
:1040E000A915809178028770CC24C3948111C12CCA
:1040F000B12EB2942FE0B222FBE0FB1508F489C187
:10410000EB2DF0E0ED5EFC4C0C949D2F94EC8916A9
:104110009CE5990609F4A2C046E053E160E173E131
:10412000E5EC8E16ECE59E0609F0A8CF0E94F90793
:10413000F1C9F9EC8F16FCE59F0609F49EC080F4E6
:1041400037EC83163CE5930609F492C049EF52E13F
:104150006CEE72E198EC89169CE5990639F38ECFE6
:10416000EAEC8E16ECE59E0609F48CC04AE153E1B8
:104170006CE273E1FBEC8F16FCE59F06B9F27ECF93
:1041800021ED82162CE5920609F48FC0C8F48EEC5E
:1041900088168CE5980609F482C008F47DC0EFEC1F
:1041A0008E16ECE59E0609F47DC06EE089E0F0ED28
:1041B0008F16FCE59F0609F061CF0E943415AAC94D
:1041C00024ED82162CE5920609F475C088F482ED80
:1041D00088168CE5980609F46BC061E088E193EDE0
:1041E00089169CE5990609F049CF0E94DD1492C911
:1041F000E5ED8E16ECE59E0609F460C0FDE58F1630
:104200009F0609F487C93ACF80911A0380FF1BC02B
:104210008E7F80931A0360911A0370911B03809123
:104220001C0390911D030E944612109216032FEF5B
:1042300030E782E0215030408040E1F700C00000CC
:104240000E94A30E67C9816080931A0361E086957E
:10425000CCCF4FE155E169E275E168CF49E255E124
:104260006FE175E163CF40E153E166E073E15ECF5A
:104270004CEE52E169EF72E159CF42ED52E16FED40
:1042800072E154CF4FED52E162ED72E14FCF4CE25B
:1042900053E16AE173E14ACF61E081E0A6CF65E0D6
:1042A00082E08BCF68E086E088CF64E18FE085CF45
:1042B00067E185E182CF62E289E17FCF61E083E25D
:1042C00094CF9AE589169DE5990699F168F48114D1
:1042D000FCE59F06B9F02EED82162CE5920609F05A
:1042E000CDCE0E944E130CC03CE583163DE59306EF
:1042F000B1F008F197EA89169DE5990609F0BECE5E
:104300000E940A190E94F215EFEFF4E32CE0E1504D
:10431000F0402040E1F700C000000E944407809177
:10432000670382FB882780F991E089270E94C515E1
:10433000A5CE81E0FBCF80E0F9CFC8010E94BD0B84
:10434000F82EABCE212F2F70E22E107F19F0E294C1
:1043500090EFE922FF20B9F0EE2069F080E2800FB3
:10436000883010F0A11009C080919A02E82AE092EA
:104370009A020E94230D802F4AC080919902E82A58
:10438000E0929902F6CF802F0E942019EE2009F4C6
:1043900040C0005E083010F0A11004C08E2D0E94B5
:1043A000AC0B06C0E09480919902E822E092990259
:1043B0000E94230D2EC0312F3F70E32E107F10324C
:1043C00019F0E29480EFE822AA2089F081E0A81693
:1043D00009F467C0FF2009F471C0DD2009F467C04B
:1043E000F201858180FFC7CF8F70858360C02091E7
:1043F000670322FD34C0FF2061F1EE2039F0809187
:104400009A02E82AE0929A020E94230D80E00E941C
:104410005519EB2DE850FF0B349710F40E94EC0770
:10442000CC2009F443C88091780280FD3FC8F20196
:1044300012828595859585950E94E115C2010E949D
:10444000431A809178028595859585950E949C15E3
:104450002DC880E00E942019EE20D9F29FCFFF20C6
:1044600099F090919B02892F8E29D11003C00E9450
:104470007F0DCFCFE1E0DE12FACF22FFCACF98172F
:1044800041F280939B02C5CFD11006C00E94A60BBB
:104490008E2D0E94780DBDCFF1E0DF1609F4B9CF63
:1044A000F5CFFF2031F022E02D1508F4B2CF8E2D8C
:1044B000DECF31E03D1508F4ACCFEACFDD2041F38B
:1044C000F9E3AF1219C12FEF37EE83E021503040EE
:1044D0008040E1F700C000000FC1812F86958695CE
:1044E000837061F0813009F094CFC8019370F110AE
:1044F00002C090E080E00E94C0078BCFC80193709B
:10450000F11002C090E080E00E94D60782CF802F99
:10451000FF2029F00E9468090E9448157ACF0E9466
:10452000AD08FACF812F837089F5F11072CF402F3B
:10453000429546954770440F440F802F8F70042E8C
:1045400001C0880F0A94EAF7202F207104FF07C0EA
:104550002FE030E001C0220F4A95EAF7209516952A
:1045600016951370123069F050F430919C0211309E
:1045700029F0822B83230E94ED154BCF832B822BB6
:10458000FACF282B80919C028227F5CF8695FF20B9
:1045900011F0812F8170882309F43BCF402F429581
:1045A00046954770440F440F802F8F70042E01C032
:1045B000880F0A94EAF7202F207104FF07C02FE02C
:1045C00030E001C0220F4A95EAF72095169516951E
:1045D0001370123069F050F430919D03113029F0BE
:1045E000822B83230E948B1514CF832B822BFACF2F
:1045F000282B80919D038227F5CF1F70FF2029F083
:10460000812F0E94E115802F32CF802F0E94780DDC
:10461000812F0E949C15FDCE802F92EFA916B1F13B
:104620009A1570F0E0EFAE16D1F0F1EFAF1691F001
:10463000FF2009F45CC0D1109ECE812F8F712AC05B
:1046400023EFA21651F134EFA312F2CF809167034A
:1046500082FD2FC0812F8F71FF20D9F21BC0FF2058
:1046600081F081E08D1508F4D4CE1F7181E090E0D7
:10467000012E01C0880F0A94EAF790919D038927C3
:10468000B1CF92E09D1508F4C4CEEFCF812F8F718A
:10469000F110BFCF0E94E115BCCE80E0FF2009F4ED
:1046A000A1CF1F7181E0012E01C0880F0A94EAF7A3
:1046B00099CFFF2089F01F71812F0E94E115809111
:1046C000670382FF07C0E8E01E9FC00111248360DA
:1046D00080937802812FDECF81E00E94A915F1E05E
:1046E000FD1508F096CE82E00E94A91592CEDD203D
:1046F00039F0893309F4E7CE802F0E94201989CE42
:10470000812F8F7186CFF0E16F16FFE57F0609F4E8
:10471000D8CA21E162162FE5720609F4DCCA10E25C
:10472000FCE36F16710420F4F301ED5CFE4F108181
:104730001F921F937F926F92F20180811F928F933D
:1047400081811F928F9382E291E09F938F931F92BA
:1047500088E18F938EEA92E09F938F930E9420309E
:104760000FB6F894DEBF0FBECDBF80913702909197
:104770003802449709F4B5CA809137029091380203
:10478000FC01EA53FD4F1083019690933802809309
:104790003702430133EF83163CE5930609F41BCB44
:1047A00008F0ADCA98ED89169CE5990609F40FCB7F
:1047B000E9ED8E16ECE59E0609F419CBF7ED8F16A0
:1047C000FCE59F0609F0ACCA26E241EE61EEC201AB
:1047D0000E94E6190C948A1A85E0DE011196019078
:1047E0000D928A95E1F7F201228189819A81211146
:1047F0000C945A1A0E94BD0B182F0C94621AF6E101
:104800008F16FCE59F0609F018CC8091390269E209
:10481000811165E386EF91E00E9461070CCB1F9345
:10482000CF93DF9380914502807F09F049C080914A
:104830004202882309F444C080917702D091460255
:104840006091400270914102A0914302B0914402F4
:10485000C62FC72316E0D81799F190E0109711F0F2
:10486000CF3F19F401968770F6CF189F9001199FDA
:10487000300D1124F901E95BFD4F41814713F2CF5F
:1048800040814613EFCF42814111ECCF43815481E7
:104890004A1B5B0B483C510528F7809145028F70FD
:1048A000806180934502F901E45BFD4F80818F7048
:1048B0008061808380E492E00E94431A0E94B30BDF
:1048C000DF91CF911F910895A1E1B0E0EAE6F4E213
:1048D0000C941E2F8C0185E0F801DE011D960190DD
:1048E0000D928A95E1F7F801E28080E4A82E82E03B
:1048F000B82E60914302709144026115710509F46C
:1049000026C19091400240914102892F84238F3F1C
:1049100009F41DC120813181C380D480F09042020E
:10492000F601E61BF70BFF2009F4DCC0809145027D
:10493000582F507FE83CF10508F09FC051116BC023
:10494000FE2C431314C0921312C0E11010C08F70DC
:10495000806180934502C5010E94431A80914502FF
:10496000F80185838F2D6196EAE00C943A2FC114EB
:10497000D10429F0822F83238F3F09F003C180E007
:10498000F82FF170DF2E80FF3CC0809177024091BC
:10499000460256E0841315C02D873E878D859E857F
:1049A0000E94F211292F22952F702230F0F024302E
:1049B00018F59F70F1F0F8019581907FD1F4D12C1A
:1049C0001EC090E0589FF001599FF00D1124E95B43
:1049D000FD4F6181361306C06081261303C06281DA
:1049E000E6120FC001968770D5CF9F7011F0882313
:1049F00031F3805E883018F3C8010E94431AFD2C01
:104A0000B1CFEE2009F4AECF809145028160809352
:104A10004502F12CA7CF431306C0921304C0F8013E
:104A2000EE2009F479C0C8010E94FF11882309F122
:104A3000EE20F9F080914502803270F02091400222
:104A40003091410238872F831986DB86CA868C878E
:104A5000CE0107960E94431A86E0F801A0E4B2E076
:104A600001900D928A95E1F70E940F24FF24F394A0
:104A700079CFC8010E94431AF9CF51110AC080E4CE
:104A800092E00E94431A86E0F50111928A95E9F7B7
:104A9000C0CF43130FC092130DC0E1100BC0F8013B
:104AA0008583C8010E94431A86E0F50111928A9518
:104AB000E9F758CFC8010E94FF118823D1F2EE20F8
:104AC000C1F280914502803238F22091400230914B
:104AD00041023A8329831B82DD82CC828E83CE0100
:104AE0000196B8CFE83CF105F8F6FE2CEE2009F26D
:104AF00043131FC092131DC08091450280FD10C05A
:104B0000982F907F69F0F8018583903F31F0982FBE
:104B1000907F905F8F70892B8583C8010E94431A14
:104B200086E0F801A0E4B2E001900D928A95E1F7E9
:104B300019CFC8010E94FF1181118ECF80914502CB
:104B4000816080934502C8010E94431A0BCFEE207A
:104B500009F48FCFC8010E94FF11F82E882309F4B1
:104B600088CF86E0F801A0E4B2E001900D928A952A
:104B7000E1F780914002909141020E94F2110E945F
:104B80000F24F0CE81E08E25FBCEA7E1B0E0EBEC68
:104B9000F5E20C94252F4B8B5C8B6D8B7E8B8F8B72
:104BA0006111109299021A8A198A85E0FE017396A2
:104BB000DE011D9601900D928A95E1F786E0FE01D7
:104BC0003D96DE01179601900D928A95E1F7CE0190
:104BD00007960E946424811112C086E0FE01379678
:104BE000DE01119601900D928A95E1F78A859B85E9
:104BF000892B29F088859F8189238F3F81F516E0D5
:104C00008091770290914602891317C06796E3E07E
:104C10000C94412F96E0929FD001939FB00D1124E8
:104C2000A95BBD4FFE01319601900D929A95E1F777
:104C3000809346020E94B30BE2CF819FC0011124F2
:104C4000895B9D4F0E946424882301F38091770241
:104C500090E001968770992780937702D1CF2091B9
:104C6000460230E0C901019687709927409177028A
:104C70004817190679F60E94F21510924602109212
:104C8000770286E0E0E4F2E0DF011D928A95E9F721
:104C9000B6CFA4E0B0E0EFE4F6E20C941F2F198247
:104CA0001A821B821C8280EAC82E81E0D82E10E076
:104CB00000E0EE24E394F12CF60181916F018F3F27
:104CC00009F446C0F894E82FE295EF70F0E021A1D6
:104CD0008F70A70102C0440F551F8A95E2F7CA01E1
:104CE000922F982B91A392A18095892382A37894E7
:104CF00000C0E4EAF1E0B12C31E021912F3F09F44A
:104D00006CC0A22FA295AF70B0E090968C9190E00D
:104D10002F7002C0959587952A95E2F780FD5DC0BA
:104D2000832FB82A330F51E0E83AF50731F7F6013F
:104D3000319780818F3F11F00E94C40980EA8A95E3
:104D4000F1F7E1E0F0E0EC0FFD1FE00FF11FB082A2
:104D50000F5F1F4F0430110509F0AECF44E050E063
:104D6000BE016F5F7F4F80EA92E00E94133011E036
:104D7000009709F410E0892B91F189819A81AB8128
:104D8000BC818093A0029093A102A093A202B09351
:104D9000A30281E080939F020E94D11490939E020F
:104DA00080939D0280919D0290919E020E94C21468
:104DB0000597C8F08091A0028093FE028091A10225
:104DC0008093FF028091A202809300038091A3024E
:104DD0008093010310929F0206C080E0A2CF8091D1
:104DE0009F028111DFCF812F2496E9E00C943B2FA5
:104DF0001F921FB61F9211248F939F93AF93BF935F
:104E000080916103811113C08091620390916303CB
:104E1000A0916403B09165034196A11DB11D8093DB
:104E2000620390936303A0936403B0936503BF91FF
:104E3000AF919F918F911F901FBE1F901895CDB776
:104E4000DEB7AC970FB6F894DEBF0FBECDBF85B707
:104E5000806885BF85B7806885BF84B7877F84BF3A
:104E60000FB6F894A89580916000886180936000E7
:104E7000109260000FBE80E890E00FB6F894809327
:104E80006100909361000FBE82EC99E09093F50170
:104E90008093F4010E94BC050E9487068091E20085
:104EA00084608093E2007894809190038823A1F03D
:104EB0001091E9001F709091EC00892F817090FD96
:104EC00080E8182B1092E9008091E80083FD0E9491
:104ED00008161F701093E90082E084BD93E095BD31
:104EE0009AEF97BD80936E000E941F12811102C03D
:104EF0000E94751181E30E94C40983E30E94C409E2
:104F000082E30E94C40986E30E94C40987E90E94E3
:104F1000C40986EC0E94C40984E30E94C40985E3A5
:104F20000E94C40984E0EEEFF2E0DF01282F1D9219
:104F30002A95E9F7E0EAF2E0DF011D928A95E9F7A8
:104F40000E94B913811102C00E944E1382E090E0CA
:104F50000E94BF328093A5020E943812909367038B
:104F6000809366030E944926EFE3FCE93197F1F74D
:104F700000C000000E9449268091FE0280FF08C008
:104F80006FEF7FEF90E080E00E94F1320E944407D3
:104F900083E090E00E94BF320E94ED151092FB0268
:104FA00080E880939E030E94132E6DE070E087E8F6
:104FB00092E00E94A10D892BE9F58091FB0263E04C
:104FC00070E081FD2DC184E892E00E94A10D892B43
:104FD00089F56DE070E084E792E00E94A10D892BD5
:104FE00049F50E945507605A75418F4F9F4F609356
:104FF0005503709356038093570390935803E1EA47
:10500000F3E080E092E0DF019C011D9221503040EE
:10501000E1F7F093A805E093A7058FEF9FEF90933A
:10502000A00380939F0381E080935A0380935903E8
:105030001092FC028091A402811133C00E94B91326
:10504000811104C00E944E130E943E1388E090E03C
:105050000E94C73260931A0370931B0380931C0352
:1050600090931D036E7F71F40E943E1388E090E0E0
:105070000E94C73260931A0370931B0380931C0332
:1050800090931D030E9408081092160380911A0342
:1050900080FF04C060E086950E94DD1481E080936B
:1050A000A40281E08093AC0285988D9A86988E9AAE
:1050B0008FE891E00197F1F700C000002091AC0269
:1050C0004DEA52E0FA018E2F841B821708F4ABC020
:1050D00080E091E090935E0380935D038EEF92E019
:1050E00034E0632E680E8091900320E4F22E00E1FC
:1050F00012E1853009F4D9C00E944926E82E8111B9
:105100000E945507AEEFB2E0E6EAF2E010E000E000
:10511000302F8D912191281709F4D6C090E0FF24FB
:10512000F3942827422F4F2109F4C9C099A33AA329
:105130008F2191E009F490E09BA30E94D11481603B
:10514000782F9DA38CA349A15AA16BA18DA10E9488
:10515000C525F801EA55FD4F8081F826F08280913F
:1051600016038823D1F180911503E0911A03E69587
:10517000E81BE0931103823009F0BDC0F0E0EE556A
:10518000FD4FE4910E2F10E099EDC92E90E1D92E3C
:1051900080911203882361F0109212030E94D114AF
:1051A0009093100380930F03109214031092130333
:1051B0000E94D114E0910F03F09110038E1B9F0BFE
:1051C0008F3F9F4750F4E00FF11FF0931003E093DF
:1051D0000F038FE093E0F6010995B12CF12C80913B
:1051E000AC02B81608F4E1C0F1100E945507809196
:1051F0005A03882309F47DC181EA93E09093A805BE
:105200008093A7058EEB92E00E94DD0CE0919D0358
:10521000EF3008F071C2F0E0E15EFC4C0C949D2F81
:1052200081E892E0D2CE8FB185FB882780F97E9904
:1052300004C090E0892B819346CF92E0FBCF809110
:105240009003843029F10E94CB0D10926103A8E1F4
:10525000B0E00FB6F894A895A09360000FBEF0924E
:10526000600083B7817F846083BF83B7816083BF21
:105270007894889583B78E7F83BF0FB6F894A895EE
:1052800080916000886180936000109260000FBE82
:1052900080918F03882349F00E944926EEEFF2E0C7
:1052A0008191811198C46E12FBCF8091900385305B
:1052B00009F4C5CF0E94F2150E94EC071DCF9F5F35
:1052C000FF0C943009F02ECF0F5F1F4F04301105F3
:1052D00009F01ECF8FEF8EA38FA318A60E94D114C2
:1052E0008160782F9AA789A74EA15FA168A58AA59A
:1052F0000E94C52534CF863059F4F0E0E156FD4FC9
:10530000E4910E2F10E089ECC82E80E1D82E40CF1A
:10531000893061F4E695F0E0E456FD4FE4910E2FFC
:1053200010E0BDE3CB2EB0E1DB2E32CF8F3061F445
:10533000E695F0E0E756FD4FE4910E2F10E0A8ED62
:10534000CA2EAFE0DA2E24CF853159F4F0E0EA56C8
:10535000FD4FE4910E2F10E0FAE8CF2EFFE0DF2E94
:1053600017CF08E210E06FE0C62E6FE0D62E88312E
:1053700009F40ECF833249F4E4E9F2E00591149187
:10538000E8E7CE2EE0E1DE2E03CF04EF11E078ED6A
:10539000C72E7EE0D72E843209F4FACE00ED17E056
:1053A0005FEFC52E57E0D52EF3CE0B2D10E0EFB1F9
:1053B000E5FBEE27E0F97E995DC080E08E2BD801F9
:1053C000A355BD4FEC919E2F9370891709F450C0DF
:1053D000EE0FEE0FE82BEC93EF70F0E0E855FE4F88
:1053E000980125553D4F69018081D9019C91890F14
:1053F0008C9320E08430B4F0F801E655FD4F8081B5
:105400008F5F8083B1100DC060919D0370E090E0CC
:1054100080E00E94270C40E062E00E9485110E941B
:10542000C81921E0F60180818D3FB4F4F801E655FA
:10543000FD4F808181508083B1100DC060919D032C
:1054400070E090E080E00E94270C40E061E00E9464
:1054500085110E94C81921E0D6018C91082E000CFC
:10546000990B64E070E00E94672FF6018083F22AB6
:10547000B394B5CE82E0A2CF89EB92E00E941D0DDD
:105480008EEA92E00E94890D81E00E94EB0C86EC8E
:1054900092E00E94890D81E00E94EB0C80915A03FA
:1054A000882371F020919F033091A00321153105CD
:1054B00039F08091FC0261E070E0882309F420C19A
:1054C000809159038823A9F00E9455070091550344
:1054D000109156032091570330915803601B710BB4
:1054E000820B930B6F3F7F4F8F4F9F4710F40E94AB
:1054F000CB0DE11001C0F1100E94E60D86E0E9E05D
:10550000F3E0DE01119601900D928A95E1F7109279
:105510000B0310920C0310920D0310920E038B815B
:105520009C81892B09F44AC080910703909108035C
:105530000E94C2149C0190910303992309F46EC345
:1055400025313105D8F19F3F19F09F5F90930303F8
:105550001B81112359F00E9448099FEF11160CF48A
:1055600091E0899F802D112480930B031C811123CE
:1055700059F00E9448099FEF11160CF491E0899FA1
:10558000802D112480930C0330910B033323B1F051
:1055900020910C03222391F045EB3403C001112428
:1055A000992309F477C190930B0345EB24039001F1
:1055B0001124332309F472C130930C038D819E8131
:1055C000892B09F44AC080910503909106030E943B
:1055D000C2149C0190910203992309F41AC3213546
:1055E0003105D8F19F3F19F09F5F909302031D8111
:1055F000112359F00E9426099FEF11160CF491E037
:10560000899F802D112480930D031E81112359F051
:105610000E9426099FEF11160CF491E0899F802DBE
:10562000112480930E0330910D033323B1F02091A8
:105630000E03222391F045EB3403C001112499237A
:1056400009F430C190930D0345EB2403900111241C
:10565000332309F42BC130930E0346E050E0BE0122
:105660006F5F7F4F89E093E00E941330892B11F028
:105670000E94481586E0FE013196A9E0B3E0019052
:105680000D928A95E1F70E94EC079091FD02891333
:105690008093FD0280919003843009F024CD83E053
:1056A0008093E9008091E80082FF1DCD8091E800A1
:1056B00090E085FF06C00E94DB05882309F4FAC04C
:1056C00091E08091E8008B778093E800992309F4BA
:1056D0000ACDE981E150E33108F05FC1F0E0E25D1D
:1056E000FC4C0C949D2F85EB92E0C8CE81EB92E0B0
:1056F000C5CE8BEA92E0C2CE86EA92E0BFCE8F5F43
:10570000082F10E02B01082E02C0440C551C0A94EF
:10571000E2F7A90144215521452B89F39091FB0221
:1057200090FD44C08295880F807680930E01980189
:10573000369527953695279520931101815E8093A4
:105740000F011092120124E630E047E050E06CE0D7
:1057500071E088E70E94B62E892B09F0B1CEA8012E
:1057600095E0440F551F9A95E1F78091FB0280FD6B
:105770002BC04F555C4F04E610E020E230E060E4BF
:1057800088E70E94D72E892B09F09ACE0E94E60D59
:10579000C2018095909540909F035090A0034822AD
:1057A00059225092A00340929F038ACE880F880FFF
:1057B000880F80930E0110921101895F80930F0171
:1057C00083E080931201BFCFEBEDF2E080E2DF01D6
:1057D0001D928A95E9F7ECEBF1E0FCA7EBA708EB4B
:1057E00011E087E0A82E99249394ABA5BCA52D9138
:1057F000BCA7ABA7F80121908F01240E352E311CD8
:10580000C1018F559C4F1C01E22FF0E0E552FD4F86
:1058100030E020E07A2C721AB92C022E01C0BB0CA9
:105820000A94EAF7610190E0D6018D916D018B2118
:10583000672D691B6770862E062E000C770BB82F1C
:1058400001C0BB0F8A94EAF78B2E7195619571099F
:105850006770772701C086956A95EAF7882A808164
:10586000882A80829F5F9830F9F62F5F3F4F3196EC
:105870002830310579F6E0ECF1E02BA53CA5E217E4
:10588000F30709F0B2CF04E610E020E230E04BED80
:1058900052E075CF81E080930B0387CE81E0809347
:1058A0000C038CCE81E080930D03CECE81E08093FB
:1058B0000E03D3CE00E210E0CE0101967C01809170
:1058C000E80085FD0AC08091E8008B778093E800AE
:1058D0000E94DB05882399F3F3CE8091F100D70174
:1058E0008D937D010150110951F7EACE1A8289E0AA
:1058F0008B8311C08A81823009F483C1833091F196
:10590000813009F04AC00E9455070E94A32F6B8383
:105910007C838D839E8380919003843009F0E3CB58
:105920001091E9001F709091EC00892F817090FD1B
:1059300080E8182B82E08093E9008091E80080FFE6
:105940000DC050E040E060E270E0CE0101960E94A0
:105950000C068091E8008E778093E8001F7010930A
:10596000E900C1CB8091FE028B838091FF028C8382
:10597000809100038D83809101038E83CCCF8A8137
:10598000823059F46B817C818D819E810E94A32F8E
:1059900086E290E00E94D332BECF8FEF8983BBCFE7
:1059A0004C816B818A810E948511982789279827CD
:1059B0009E838D83B0CF2D813E81322723273227CE
:1059C0004C816B818A810E94FD10A5CF0E94241119
:1059D000A2CF8A818138C1F060F4803809F09BCF72
:1059E00020E04B8160911C0380911B030E9459129F
:1059F00092CF823859F1833809F08DCF20E0409161
:105A00001D036C818B81F2CF60E08B810E94DD14DD
:105A10009B8180911A03911111C08E7F80931A038C
:105A200010921603BFEFE0E7F2E0B150E040F04023
:105A3000E1F700C000000E94A30E6DCF816080934B
:105A40001A0360E086950E94DD1465CF8B818093F8
:105A50001E0361CF8A81813899F030F4803809F0D3
:105A60005ACF80911D0344CF823869F0833809F002
:105A700052CF80911B038B8380911C038C834BCF6F
:105A80000E94000835CF80911E0332CF60911A0327
:105A900070911B0380911C0390911D030E9446127C
:105AA0003ACF80E18A8337CF83E08A8389E520CFAC
:105AB0000A811B811027012710279E012F5F3F4F6E
:105AC0006901EC80C9018E0D911D7C01C8018955C9
:105AD0009F4FCE14DF0409F41ECF0935A3E01A0747
